:100000004FC0000062C0000060C000005EC0000081
:100010005CC000005AC0000058C0000056C000007C
:1000200054C0000052C0000050C000004EC000008C
:100030004CC000004AC0000048C0000046C000009C
:1000400044C0000042C0000040C000003EC00000AC
:100050003CC000003AC0000038C0000036C00000BC
:1000600034C0000032C0000030C000002EC00000CC
:100070002CC000002AC0000028C0000026C00000DC
:1000800024C0000022C0000020C0000072015E01F8
:10009000600162016401660168016A016C016E0120
:1000A00011241FBECFEFD0E4DEBFCDBF11E0A0E032
:1000B000B1E0E0E1F5E000E00BBF02C007900D9277
:1000C000A23BB107D9F787D121C29ACF88E08093AC
:1000D000B8001092B900ECEBF0E08081846080837E
:1000E000089584EA8093BC00ECEBF0E080818823E3
:1000F000ECF78091B900887F883041F080E091E092
:10010000EED18091B900E3D180E0089581E00895B7
:1001100084EA8093BC00ECEBF0E080818823ECF76C
:100120008091B900887F803141F088E091E0D7D19B
:100130008091B900CCD180E0089581E0089584E9F0
:100140008093BC00ECEBF0E0808184FDFDCF08954E
:100150008093BB0084E88093BC00ECEBF0E08081EE
:100160008823ECF78091B900887F883141F082E1E3
:1001700091E0B5D18091B900AAD180E0089581E0E5
:1001800008958093BB0084E88093BC00ECEBF0E022
:1001900080818823ECF78091B900887F883241F014
:1001A0008AE191E09CD18091B90091D180E00895DD
:1001B00081E008958093BB0084E88093BC00ECEB61
:1001C000F0E080818823ECF78091B900887F80344B
:1001D00041F082E291E083D18091B90078D180E052
:1001E000089581E00895ECEBF0E0808180648083E5
:1001F00080818468808380818823ECF78091B900B6
:10020000887F803519F48091BB0008958AE291E0DF
:1002100066D18091BB005BD180E00895ECEBF0E00B
:1002200080818F7B80838081846880838081882324
:10023000ECF78091B900887F883519F48091BB0074
:10024000089582E391E04BD18091BB0040D180E0E2
:100250000895CF93DF93C82FD62F43DF8823D1F0A3
:1002600080ED76DF882391F08C2F8BDF882351F08F
:100270008D2F87DF882311F062DF0FC08AE391E0C2
:100280002ED10BC084E591E02AD107C085E691E02C
:1002900026D103C085E791E022D18FE19EE401974A
:1002A000F1F700C00000DF91CF91089590E08A300F
:1002B0009105B0F4FC01EA5BFF4F1FC181E3089593
:1002C00082E3089583E3089584E3089585E3089520
:1002D00086E3089587E3089588E3089589E3089500
:1002E00080E2089580E30895CF93FBDE882309F42C
:1002F00068C080ED2DDF882309F463C080E041DF12
:10030000882309F45EC004DF882309F45AC081ED14
:1003100051DF882309F452C066DFC82F82958F70A1
:10032000C5DFD5D08C2F8F70C1DFD1D08AE3CFD07D
:100330005ADFC82F82958F70B9DFC9D08C2F8F708C
:10034000B5DFC5D08AE3C3D04EDFC82F8295817058
:10035000ADDFBDD08C2F8F70A9DFB9D08DE2B7D0C3
:1003600042DF8F70A3DFB3D08DE2B1D03CDFC82F66
:1003700082958F709BDFABD08C2F8F7097DFA7D0CB
:100380008FE2A5D030DFC82F82958F708FDF9FD08E
:100390008C2F8F708BDF9BD08FE299D03FDFC82FDF
:1003A000CEDE8C2F82958F7081DF91D08C2F8F7055
:1003B0007DDF8DD085E891E092D003C088E891E0A0
:1003C0008ED080E0CF91089588E991E088D062E0F6
:1003D00080ED8ACF08952FEF81E19AE72150804088
:1003E0009040E1F700C000008AE08AB96FDE5FD07C
:1003F00083EA91E074D02FEF81E19AE721508040A9
:100400009040E1F700C0000060E080E022DF2FEFC5
:1004100089E698E1215080409040E1F700C000005B
:1004200066E081E016DF2FEF89E698E121508040F9
:100430009040E1F700C0000063E082E00ADF2FEFA8
:1004400089E698E1215080409040E1F700C000002B
:1004500065E284E0FEDE2FEF89E698E121508040DE
:100460009040E1F700C0000060E185E0F2DE2FEF90
:1004700089E698E1215080409040E1F700C00000FB
:1004800066E186E0E6DE2FEF81E19AE721508040C9
:100490009040E1F700C0000097DF2FEF83ED90E37D
:1004A000215080409040E1F700C00000F5CF10924D
:1004B000CD0089E18093CC001092C800E9ECF0E017
:1004C000108286E88093CA0088E180830895E8EC72
:1004D000F0E0908195FFFDCF8093CE000895CF93FB
:1004E000DF93EC018881882329F02196F0DF899140
:1004F0008111FCCFDF91CF910895EE0FFF1F0024F3
:10050000001C0BBE0790F691E02D0994F894FFCFE4
:100510000D0A2053746120000D0A20522D5374617E
:1005200020000D0A2053743020000D0A205374312E
:1005300020000D0A2053743220000D0A205374331A
:1005400020000D0A2053743420000D0A20446174E9
:1005500061206279746520777269746520466169EB
:100560006C6564000D0A2052656720416464204672
:10057000696C6564000D0A20534C412B572066615D
:10058000696C6564000D0A205374617274204661C1
:10059000696C6564000D0A000D0A20534C412B5212
:1005A000206661696C6564000D0A2054696D6520E0
:1005B0003A20000D0A205374617274696E672E2E02
:0205C0002E000B
:00000001FF
